:020000040800F2
:1000000000200020450000084100000841000008D1
:100010004100000841000008410000080000000005
:100020000000000000000000000000004100000887
:10003000410000080000000041000008C90000085D
:10004000FEE7000008B50A4A0A4B0B498B4207D36A
:1000500000210A4B0A4A934207D300F013FEFEE741
:1000600052F8040B43F8040BF0E743F8041BF2E7E3
:10007000681600080000002000000020000000209A
:100080008000002030B50F25072988BF043001F01B
:100090000701046889008D4024EA050404600468AF
:1000A00042EA83028A402243026030BDFFF7EABF82
:1000B00013460022FFF7E6BF012303FA01F10AB15C
:1000C0000161704741617047024A13680133136050
:1000D000704700BF00000020014B1868704700BF48
:1000E00000000020034A116813685B1A8342FBD3A7
:1000F000704700BF000000204FF48072024B08B927
:100100001A6170475A617047000C01408022034B0E
:1001100008B91A6170475A61704700BF000C01406E
:1001200008B5144B08219A69134842F01D029A61E0
:10013000DA6942F48822DA61104A536843F00073A6
:10014000536000230222FFF79DFF022207210A4885
:10015000FFF798FF4FF4807207490A6180220A6115
:100160004FF0E02241F63F71516193610723136123
:1001700008BD00BF00100240000C0140000001401B
:1001800010B504460D4A092193690D4843F4804394
:1001900043F00403936102230322FFF787FF012248
:1001A0000A210748FFF784FF064B42F20C02B3FB1B
:1001B000F4F4054B9C60DA6010BD00BF00100240F3
:1001C0000008014000127A0000380140024604494C
:1001D000086810F020001EBF4B68012013707047A4
:1001E0000038014008B5154B0D219A69144842F0BA
:1001F00018029A61DA6942F48042DA61022303222A
:10020000FFF754FF01220E210D48FFF751FF022393
:1002100003220F210A48FFF749FF002301220D2185
:100220000848FFF743FF01220D210648FFF744FF6E
:100230004FF45772044B1A6008BD00BF0010024013
:10024000000C01400010014000380040054B9A6846
:100250009107FCD5D8609A68D207FCD5D868C0B29F
:10026000704700BF003800401B4A10B59369052154
:1002700043F40173936119480022FFF719FF01232A
:10028000174C0220A360FFF72DFFA36843F008037B
:10029000A360A3681907FCD4A36843F00403A36018
:1002A0000F4B9A685207FCD49A6842F4000242F05D
:1002B00001029A601A6922F460321A611A6942F4E2
:1002C00060321A61DA6822F4E012DA60DA6842F425
:1002D000E012DA6010BD00BF0010024000080140CB
:1002E0000024014009284FF0070310B5144A00EB21
:1002F00040011BD814698B4024EA0304146111697E
:100300000B43136100220E4BDA621A63586399683B
:1003100041F4F01199601A609A6842F480029A6080
:100320001A689207FCD5D86C80B210BDD4681E390B
:100330008B4024EA0304D460D1680B43D360E1E727
:100340000024014008B50520FFF7CCFF40F6E44348
:10035000584340F6FF73B0FBF3F0400080B208BD95
:1003600008B51020FFF7BEFF40F6E443584340F6BF
:10037000FF73B0FBF3F04FF47A73C0F5B260063050
:1003800058432B2390FBF3F000F6C41000B208BDD5
:10039000024670B5014441F221054FF6FF708A42D2
:1003A00000D170BD082412F8013B80EA032006B298
:1003B000430098B2002E04F1FF33B8BF684013F039
:1003C000FF04F4D1EBE7013911F8013F0BB901202B
:1003D000704710F8012B9A42F6D000207047034670
:1003E0003038C2B2092A0FD9A3F14102052A02D836
:1003F000A3F137007047A3F16102052A02D8A3F1E7
:10040000570070474FF0FF30704700002DE9F04172
:100410004FF0000C15460E461F460A22034613F8FD
:10042000011BD1B32E2905D1012300210A2400F19B
:10043000080E12E0A1F13000092832D802FB0C119D
:100440001846A1F1300CE9E7303A5FFA82F8B8F1CA
:10045000090F26D804FB0121634310F8012F0AB1CC
:100460007045F1D16422BCFBF2F4DFF83CE00EFBF6
:1004700004F802FB14C43C2203FB0411A3FB022377
:10048000A1FB0E0100F050FF404446B9532D08BFB8
:10049000404238600120BDE8F0810123E2E7572D9A
:1004A000F5E70020F7E700BF809698002DE9F041BE
:1004B00003782D2B08BF013003780CBF01250025E0
:1004C000A3B300270A26044614F8013B63B32E2B7E
:1004D00006D1012600234FF00A0C00F1070E13E0AD
:1004E000A3F13000092821D806FB07332046A3F1E9
:1004F0003007E8E7303C5FFA84F8B8F1090F15D807
:100500000CFB03430CFB06F610F8014F0CB17045D1
:10051000F0D14B43B3FBF6F301FB073105B1494280
:1005200001201160BDE8F0810126F2E70020F9E723
:100530000023044AC2E90033C2E902331361024ACC
:100540001370704768000020040000202DE9F0417E
:100550007F4D804E94B00DF10300FFF737FE044647
:1005600058B9FFF7B9FD7C4B1A69801AB0F5FA6FDC
:1005700000D9DC6014B0BDE8F0819DF803200D2A9D
:10058000E9D00A2A2B7840F09480002BE3D04FF07A
:100590000008704901F803800B78242B02D111F870
:1005A000013F13B900232B70D5E72A2B00F0888078
:1005B00083EA0808F3E72C2940F0A780102C387054
:1005C00040F09F80A7E006980378002BEAD0079AB6
:1005D0003946127802ABFFF719FF0028E2D00898DD
:1005E0000378002BDED0099A0121127803ABFFF7C4
:1005F0000DFF0028D6D00B9A14782CB13C460A2166
:10060000013A12F8013FB3B964210D9801AAFFF72E
:100610004DFF00B90190504F029BBC733B60039BA0
:100620007B60019BBB60FB7B43F00303FB73FFF725
:1006300053FD3861B6E7303BD8B2092802D801FB38
:100640000434DEE70024DFE738464449FFF7BBFE09
:1006500028B938464249FFF7B6FE0028A2D0002349
:10066000072C039303D9069B1B78412B04D03A4AED
:10067000D37B23F0040369E04FF47A710B9803AA4B
:10068000FFF714FF00288DD04CF6F40003990023E7
:1006900021EAE171334AA1FB000100F045FE2E4C36
:1006A000E37BA08143F00403E373FFF715FD2061B2
:1006B00078E75F2B28BF0023591C2970F2544AE7C2
:1006C000487800283FF46EAF8C78002C3FF46AAF76
:1006D000FFF785FE07462046FFF781FE7A1C3FF4B0
:1006E00061AF431C3FF45EAF002440EA071040B204
:1006F0004FFA88F840450C707FF454AF20461A4BEF
:1007000004AA0134E4B242F8043B1F4613F8011B6B
:1007100000297FF450AF049F14493846FFF753FE79
:1007200028B938461249FFF74EFE00288CD0002722
:10073000092CCDE90177039704D90A9B1B78302B4C
:100740007FF441AF044AD37B23F00303D37329E73B
:100750000400002005000020680000205C1600084E
:100760006216000840420F000600002050160008E4
:10077000561600080048704768000020F8B5044687
:100780000027BDF91850013804F12F0600F8017F49
:10079000B042FBD1D67BA17106F00100B70748BF7C
:1007A00040F0020076074FF0520626704FF05306D5
:1007B00066704FF00206A6702F4E48BF40F004004E
:1007C000E0703088A3732071471C000A6071080A2A
:1007D000E071080C090E61720121217304211B0ACA
:1007E000E373C5F307236173207225746374D37BAD
:1007F00037800B404FF0030118BF9389A174237514
:100800001B0AE1746375937BA375D37BDB0730D53B
:100810000223E3750C2323761368190A6376A17605
:10082000190C1B0EE17623775368190A6377A177B9
:10083000190C1B0EE17784F8203093681A0A84F8AB
:10084000213084F822201A0C1B0E84F82430252332
:1008500084F823200C3BA37200232E212046E37250
:10086000FFF796FD84F82E00000A84F82F00302050
:10087000F8BD1723EEE700BF7C00002080F00102E6
:100880000D21024802F00102FFF716BC00100140E2
:1008900038B505460C460120FFF7F0FF45F0800013
:1008A000FFF7D4FC2046FFF7D1FCBDE8384000201C
:1008B000FFF7E4BF00F001020F210148FFF7FCBB86
:1008C000000C014010B504460120FFF7D7FF204679
:1008D000FFF7BCFC0020FFF7B9FCBDE8104000208A
:1008E000FFF7CCBFF8B504460E460825114FE009C6
:1008F000FFF7E0FF7A6A92B27B6A9B1A9BB2B3F56C
:10090000D07FF9D3338803F5C86292B2B2F5166F7F
:10091000328008D3796A89B27A6A92B29142FBD066
:10092000A3F548733380013D640015F0FF05E4B280
:10093000DDD1F8BD004001402DE9F04126490746D0
:1009400000F00CFB2549054600F0BAFC2449061EC0
:10095000284618BF012600F0B5FB00F0C5FC1F4972
:10096000C4B2284600F0ACFC00280CBF00231823BA
:1009700006F101084046183CE41A00F097FA1949BC
:1009800000F0ECFA0146384600F09CFBB4FBF8F4AA
:100990000546E0B200F08EFA0146284600F0D4F990
:1009A000114900F0D1F9114900F0D8FA00F09CFC8F
:1009B00004F01F0141EA461185B241F04001752063
:1009C000FFF766FF290A7620FFF762FFE9B277207A
:1009D000BDE8F041FFF75CBF3BB1933F0000F0433F
:1009E00000002041ABAA0A410000C04100007A4744
:1009F00000F007016D20FFF74BBF000008B5142081
:100A0000FFF770FB00210620FFF742FF01210720BE
:100A1000FFF73EFF00210820FFF73AFF7F21092062
:100A2000FFF736FF05210A20FFF732FFF4210B20E4
:100A3000FFF72EFFEF210C20FFF72AFF00210D20EA
:100A4000FFF726FF00210E20FFF722FF80210F2055
:100A5000FFF71EFF00211020FFF71AFF20211220B0
:100A6000FFF716FF00211320FFF712FF1D211C20A6
:100A7000FFF70EFF40211D20FFF70AFFA1212020D4
:100A8000FFF706FF20212120FFF702FF4E21222041
:100A9000FFF7FEFEA5212320FFF7FAFE0021242008
:100AA000FFF7F6FE0A212520FFF7F2FE0021432082
:100AB000FFF7EEFE00214420FFF7EAFE002145206B
:100AC000FFF7E6FE00214620FFF7E2FE0021792035
:100AD000FFF7DEFE00217A20FFF7DAFE20217020EA
:100AE000FFF7D6FE12217120FFF7D2FE08217220F7
:100AF000FFF7CEFE00217320FFF7CAFE002174200D
:100B0000FFF7C6FE00213020FFF7C2FE0020FFF7EE
:100B10006FFF0948FFF710FF0320FFF7D3FE042003
:100B2000FFF7D0FE07200321FFF7B2FEBDE8084023
:100B30000020FFF7A3BE00BFC3F5D8432DE9F04F57
:100B40008846074685B0002800F090804B1E3F2B5A
:100B500000F28C80FFF752FF03260025454CDFF89A
:100B600018910B210720FFF793FED9F81830434A5C
:100B700043F4803343F00803C9F8183013680F2199
:100B800023F0400313603E4803220023FFF78EFA50
:100B90000020FFF78FFE0723256001206560A56018
:100BA000E56025612562A561A3624FF6FF73E362EC
:100BB00065622563656460612060FFF75FFE4FF04A
:100BC000E023D3F810A000202AF002021A614FF0AF
:100BD000200BADF80E50FFF76DFEAA200DF10E01AF
:100BE000FFF780FE0BF1FF3313F0FF0BF5D1BB468F
:100BF0002D200DF10E01FFF775FED4200DF10E0131
:100C0000FFF770FE08EB07021BF8010B0DF10E0158
:100C10000192FFF767FE019A5A45F5D10020FFF7D0
:100C200049FE4FF0E0230020C3F810A0FFF726FE96
:100C30002560D9F81830002023F48033C9F8183023
:100C4000FFF738FEFFF7CEFA03210720FFF720FE5B
:100C50000320FFF737FE013E0420FFF733FE16F0B6
:100C6000FF0603D01420FFF73DFA78E705B0BDE892
:100C7000F08F00BF004001400010024000380040EB
:100C8000000C01402DE9F0418EB0FFF749FAFFF763
:100C9000EBFA4FF41650FFF773FA0324FFF7A2FAAA
:100CA000FFF746FCFFF7AAFE0120FFF725FA002018
:100CB000FFF72CFA5020FFF715FA0020FFF71CFA77
:100CC0000120FFF723FA013C5020FFF70BFA14F044
:100CD000FF04E9D12046FFF70FFA2046FFF716FA86
:100CE000FFF7FAF942F20F77A0F51C54103CFFF71A
:100CF0002DFCFFF7F1F9001BB842F8D9FFF73AFDD8
:100D00000646FFF7E9F90446FFF7E6F90546FFF75F
:100D100019FB8046FFF724FB4346324629460090E4
:100D200002A8FFF72BFD05460120FFF7EFF902A807
:100D30002946FFF703FF0020FFF7E8F9D7E7000097
:100D400080F0004002E000BF81F0004142001FBF80
:100D50005FEA410392EA030F7FEA226C7FEA236C89
:100D60006AD04FEA1262D2EB1363C1BFD21841407E
:100D700048404140B8BF5B42192B88BF704710F014
:100D8000004F40F4000020F07F4018BF404211F0B7
:100D9000004F41F4000121F07F4118BF494292EA1F
:100DA000030F3FD0A2F1010241FA03FC10EB0C004B
:100DB000C3F1200301FA03F100F0004302D54942D8
:100DC00060EB4000B0F5000F13D3B0F1807F06D385
:100DD00040084FEA310102F10102FE2A51D2B1F17D
:100DE000004F40EBC25008BF20F0010040EA030072
:100DF0007047490040EB0000013A28BFB0F5000FF2
:100E0000EDD2B0FA80FCACF1080CB2EB0C0200FAA7
:100E10000CF0AABF00EBC25052421843BCBFD040F6
:100E20001843704792F0000F81F4000106BF80F470
:100E300000000132013BB5E74FEA41037FEA226C33
:100E400018BF7FEA236C21D092EA030F04D092F0FE
:100E5000000F08BF0846704790EA010F1CBF002032
:100E6000704712F07F4F04D1400028BF40F000408F
:100E7000704712F100723CBF00F50000704700F0AF
:100E8000004343F0FE4040F4000070477FEA2262D6
:100E900016BF08467FEA23630146420206BF5FEAA7
:100EA000412390EA010F40F4800070474FF00003A7
:100EB00004E000BF10F0004348BF40425FEA000C6E
:100EC00008BF704743F0964301464FF000001CE016
:100ED00050EA010208BF70474FF000030AE000BF6C
:100EE00050EA010208BF704711F0004302D54042AA
:100EF00061EB41015FEA010C02BF8446014600201C
:100F000043F0B64308BFA3F18053A3F50003BCFA36
:100F10008CF2083AA3EBC25310DB01FA02FC6344E3
:100F200000FA02FCC2F12002BCF1004F20FA02F2EA
:100F300043EB020008BF20F00100704702F12002DD
:100F400001FA02FCC2F1200250EA4C0021FA02F23E
:100F500043EB020008BF20EADC7070474FF0FF0C43
:100F60001CEAD0521EBF1CEAD15392EA0C0F93EA3E
:100F70000C0F6FD01A4480EA010C400218BF5FEAE0
:100F800041211ED04FF0006343EA501043EA511153
:100F9000A0FB01310CF00040B1F5000F3EBF49004D
:100FA00041EAD3715B0040EA010062F17F02FD2A51
:100FB0001DD8B3F1004F40EBC25008BF20F0010034
:100FC000704790F0000F0CF0004C08BF49024CEA4B
:100FD000502040EA51207F3AC2BFD2F1FF0340EADD
:100FE000C250704740F400004FF00003013A5DDC4E
:100FF00012F1190FDCBF00F000407047C2F100028F
:10100000410021FA02F1C2F1200200FA02FC5FEA7B
:10101000310040F1000053EA4C0308BF20EADC70C5
:10102000704792F0000F00F0004C02BF400010F437
:10103000000F013AF9D040EA0C0093F0000F01F0E4
:10104000004C02BF490011F4000F013BF9D041EA06
:101050000C018FE70CEAD15392EA0C0F18BF93EA08
:101060000C0F0AD030F0004C18BF31F0004CD8D132
:1010700080EA010000F00040704790F0000F17BFB9
:1010800090F0004F084691F0000F91F0004F14D0FF
:1010900092EA0C0F01D142020FD193EA0C0F03D157
:1010A0004B0218BF084608D180EA010000F000405A
:1010B00040F0FE4040F40000704740F0FE4040F435
:1010C000400070474FF0FF0C1CEAD0521EBF1CEAD4
:1010D000D15392EA0C0F93EA0C0F69D0A2EB0302F2
:1010E00080EA010C49024FEA402037D04FF080538C
:1010F00043EA111143EA10130CF000408B4238BF51
:101100005B0042F17D024FF4000C8B4224BF5B1A5E
:1011100040EA0C00B3EB510F24BFA3EB510340EAAC
:101120005C00B3EB910F24BFA3EB910340EA9C005A
:10113000B3EBD10F24BFA3EBD10340EADC001B01CA
:1011400018BF5FEA1C1CE0D1FD2A3FF650AF8B426E
:1011500040EBC25008BF20F0010070470CF0004C7B
:101160004CEA50207F32C2BFD2F1FF0340EAC250A6
:10117000704740F400004FF00003013A37E792F067
:10118000000F00F0004C02BF400010F4000F013AC5
:10119000F9D040EA0C0093F0000F01F0004C02BFC0
:1011A000490011F4000F013BF9D041EA0C0195E729
:1011B0000CEAD15392EA0C0F08D142027FF47DAFC2
:1011C00093EA0C0F7FF470AF084676E793EA0C0FB2
:1011D00004D14B023FF44CAF08466EE730F0004CB0
:1011E00018BF31F0004CCAD130F000427FF45CAF40
:1011F00031F000437FF43CAF5FE700BF4FF0FF3CAE
:1012000006E000BF4FF0010C02E000BF4FF0010C00
:101210004DF804CD4FEA40024FEA41037FEA226CC9
:1012200018BF7FEA236C11D001B052EA530C18BFEB
:1012300090EA010F58BFB2EB030088BFC81738BF50
:101240006FEAE17018BF40F0010070477FEA226C3E
:1012500002D15FEA402C05D17FEA236CE4D15FEA3A
:10126000412CE1D05DF8040B704700BF844608466E
:101270006146FFE70FB5FFF7C9FF002848BF10F12F
:10128000000F0FBD4DF808EDFFF7F4FF0CBF012074
:1012900000205DF808FB00BF4DF808EDFFF7EAFFFE
:1012A00034BF012000205DF808FB00BF4DF808EDB9
:1012B000FFF7E0FF94BF012000205DF808FB00BFAE
:1012C0004DF808EDFFF7D2FF94BF012000205DF834
:1012D00008FB00BF4DF808EDFFF7C8FF34BF012041
:1012E00000205DF808FB00BF42000ED2B2F1FE4FB5
:1012F0000BD34FF09E03B3EB126209D44FEA0023E5
:1013000043F0004323FA02F070474FF000007047AB
:1013100012F1610F01D1420202D14FF0FF3070474C
:101320004FF00000704700BF53B94AB9002908BF09
:1013300000281CBF4FF0FF314FF0FF3000F086B99E
:10134000ADF1080C6DE904CE00F006F8DDF804E01C
:10135000DDE9022304B070472DE9F047089D0F46F0
:1013600004468E46002B48D18A42164661D9B2FA0D
:1013700082F24AB1C2F1200301FA02FE20FA03F31D
:10138000964043EA0E0E94404FEA164CBEFBFCF129
:10139000B7B20CFB11EE01FB07F0230C43EA0E433E
:1013A000984209D9F31801F1FF3E80F0ED80984290
:1013B00040F2EA80023933441B1AB3FBFCF00CFB09
:1013C000103300FB07F7A4B244EA0344A74209D94B
:1013D000341900F1FF3380F0D980A74240F2D68063
:1013E0003444023840EA01400021E41B1DB10023CF
:1013F000D440C5E90043BDE8F0878B4206D90DB162
:10140000C5E9000100210846BDE8F087B3FA83F181
:10141000002947D1BB4202D3824200F20481841AE0
:1014200067EB030201209646002DE4D0C5E9004E8B
:10143000E1E7002A00F09080B2FA82F2002A40F040
:10144000A780881B0121370C1FFA86FEB0FBF7FC32
:1014500007FB1C00230C43EA00430EFB0CF09842F0
:1014600007D9F3180CF1FF3802D2984200F2E0805D
:10147000C4461B1AB3FBF7F007FB10330EFB00FE4C
:10148000A4B244EA0344A64507D9341900F1FF3356
:1014900002D2A64500F2C9801846A4EB0E0440EA29
:1014A0000C40A3E7C1F120068B4022FA06FC4CEA6F
:1014B000030C27FA06FA4FEA1C49BAFBF9F88F40E9
:1014C00020FA06F309FB18AA1FFA8CFE3B4300FA28
:1014D00001F708FB0EF01C0C44EA0A44A04202FA91
:1014E00001F20BD91CEB040408F1FF3A80F099805B
:1014F000A04240F29680A8F102086444241A98B2EF
:10150000B4FBF9F309FB134403FB0EFE40EA044469
:10151000A64508D91CEB040403F1FF307FD2A64591
:101520007DD9023B644443EA0840A4EB0E04A0FBCF
:10153000028E74454346F14661D35ED055B1FA1A26
:1015400064EB090404FA06F622FA01F31E43CC40C8
:10155000C5E9006400214EE743084FEA510C43EA15
:10156000C1710A0C42EA0C428BB2C407B2FBF6F11D
:1015700043EA0243BCFBF6FCB646304637461F2220
:10158000181A41EA0C4161E7714615E7184629E748
:10159000C2F1200321FA03F0964024FA03F39740A6
:1015A0003B43370CB0FBF7F807FB18001FFA86FE29
:1015B000190C41EA004108FB0EF0884204FA02F4DB
:1015C0003AD9711808F1FF3C01D288421ED8091A95
:1015D000B1FBF7F808FB0EF007FB18119BB243EACA
:1015E000014383422FD2F31808F1FF31C8D283425E
:1015F000C6D2A8F102013344C2E747459ED2B8EBF8
:1016000002036EEB0C0E0138F14697E7301A0144E5
:10161000A8F1020CB1FBF7F808FB0EF0DCE703467B
:1016200081E7D0466AE70846FEE63444023834E7EC
:10163000ACF1020C33441CE7091AC446B1FBF7F8BD
:1016400008FB0EF0C8E741469AE700BF704700BFAD
:10165000475047474100474E474741004750524D8A
:081660004300474E524D4300C8
:08166800F0FCFF7F010000000F
:0400000508000040AF
:00000001FF
