:020000040800F2
:1000000000200020450000084100000841000008D1
:100010004100000841000008410000080000000005
:100020000000000000000000000000004100000887
:10003000410000080000000041000008C90000085D
:10004000FEE7000008B50A4A0A4B0B498B4207D36A
:1000500000210A4B0A4A934207D300F069FFFEE7EA
:1000600052F8040B43F8040BF0E743F8041BF2E7E3
:10007000D819000800000020000000200000002027
:100080007C00002030B50F25072988BF043001F01F
:100090000701046889008D4024EA050404600468AF
:1000A00042EA83028A402243026030BDFFF7EABF82
:1000B00013460022FFF7E6BF012303FA01F10AB15C
:1000C0000161704741617047024A13680133136050
:1000D000704700BF00000020014B1868704700BF48
:1000E00000000020400000B9704700BF0138FAE767
:1000F000034A116813685B1A8342FBD3704700BF41
:10010000000000204FF48072024B08B91A6170475A
:100110005A617047000C01408022034B08B91A61F4
:1001200070475A61704700BF000C014008B5144B7E
:1001300008219A69134842F01D029A61DA6942F473
:100140008822DA61104A536843F000735360002339
:100150000222FFF797FF022207210A48FFF792FFCA
:100160004FF4807207490A6180220A614FF0E02251
:1001700041F63F71516193610723136108BD00BFD0
:1001800000100240000C01400000014010B5044680
:100190000D4A092193690D4843F4804343F0040359
:1001A000936102230322FFF781FF01220A210748FE
:1001B000FFF77EFF064B42F20C02B3FBF4F4054B53
:1001C0009C60DA6010BD00BF0010024000080140D2
:1001D00000127A000038014002460449086810F015
:1001E00020001EBF4B68012013707047003801408B
:1001F00008B5154B0D219A69144842F018029A610E
:10020000DA6942F48042DA6102230322FFF74EFFEB
:1002100001220E210D48FFF74BFF022303220F217D
:100220000A48FFF743FF002301220D210848FFF78A
:100230003DFF01220D210648FFF73EFF4FF45772A4
:10024000044B1A6008BD00BF00100240000C0140C2
:100250000010014000380040054B9A689107FCD51A
:10026000D8609A68D207FCD5D868C0B2704700BF82
:10027000003800401B4A10B59369052143F401730F
:10028000936119480022FFF713FF0123174C022046
:10029000A360FFF72DFFA36843F00803A360A368E2
:1002A0001907FCD4A36843F00403A3600F4B9A68BA
:1002B0005207FCD49A6842F4000242F001029A60AC
:1002C0001A6922F460321A611A6942F460321A61C2
:1002D000DA6822F4E012DA60DA6842F4E012DA60F6
:1002E00010BD00BF00100240000801400024014082
:1002F00009284FF0070310B5144A00EB40011BD842
:1003000014698B4024EA0304146111690B431361DF
:1003100000220E4BDA621A635863996841F4F011B7
:1003200099601A609A6842F480029A601A6892078B
:10033000FCD5D86C80B210BDD4681E398B4024EA3D
:100340000304D460D1680B43D360E1E7002401408B
:1003500008B50520FFF7CCFF40F6E443584340F6CC
:10036000FF73B0FBF3F0400080B208BD08B5102069
:10037000FFF7BEFF40F6E443584340F6FF73B0FB7F
:10038000F3F04FF47A73C0F5B260063058432B2374
:1003900090FBF3F000F6C41000B208BD013911F86B
:1003A000013F0BB90120704710F8012B9A42F6D09B
:1003B0000020704703463038C2B2092A0FD9A3F192
:1003C0004102052A02D8A3F137007047A3F1610268
:1003D000052A02D8A3F1570070474FF0FF3070474D
:1003E0002DE9F0414FF0000C15460E461F460A223B
:1003F000034613F8011BD1B32E2905D10123002197
:100400000A2400F1080E12E0A1F13000092832D8C8
:1004100002FB0C111846A1F1300CE9E7303A5FFA03
:1004200082F8B8F1090F26D804FB0121634310F8C4
:10043000012F0AB17045F1D16422BCFBF2F4DFF860
:100440003CE00EFB04F802FB14C43C2203FB041145
:10045000A3FB0223A1FB0E0101F00CF9404446B9B5
:10046000532D08BF404238600120BDE8F0810123D0
:10047000E2E7572DF5E70020F7E700BF80969800E8
:100480002DE9F04103782D2B08BF013003780CBF14
:1004900001250025A3B300270A26044614F8013BD2
:1004A00063B32E2B06D1012600234FF00A0C00F176
:1004B000070E13E0A3F13000092821D806FB07330B
:1004C0002046A3F13007E8E7303C5FFA84F8B8F142
:1004D000090F15D80CFB03430CFB06F610F8014F6F
:1004E0000CB17045F0D14B43B3FBF6F301FB073180
:1004F00005B1494201201160BDE8F0810126F2E713
:100500000020F9E70023044AC2E90033C2E90233BC
:100510001361024A13707047680000200400002035
:100520002DE9F0417F4D804E94B00DF10300FFF7AF
:1005300053FE044658B9FFF7CFFD7C4B1A69801A69
:10054000B0F5FA6F00D9DC6014B0BDE8F0819DF819
:1005500003200D2AE9D00A2A2B7840F09480002B42
:10056000E3D04FF00008704901F803800B78242B8A
:1005700002D111F8013F13B900232B70D5E72A2BC4
:1005800000F0888083EA0808F3E72C2940F0A78070
:10059000102C387040F09F80A7E006980378002B5D
:1005A000EAD0079A3946127802ABFFF719FF002804
:1005B000E2D008980378002BDED0099A0121127846
:1005C00003ABFFF70DFF0028D6D00B9A14782CB19F
:1005D0003C460A21013A12F8013FB3B964210D9853
:1005E00001AAFFF74DFF00B90190504F029BBC7369
:1005F0003B60039B7B60019BBB60FB7B43F0030381
:10060000FB73FFF769FD3861B6E7303BD8B20928C4
:1006100002D801FB0434DEE70024DFE73846444912
:10062000FFF7BCFE28B938464249FFF7B7FE00285D
:10063000A2D00023072C039303D9069B1B78412BE0
:1006400004D03A4AD37B23F0040369E04FF47A7173
:100650000B9803AAFFF714FF00288DD04CF6F40086
:100660000399002321EAE171334AA1FB000101F063
:1006700001F82E4CE37BA08143F00403E373FFF702
:100680002BFD206178E75F2B28BF0023591C2970C0
:10069000F2544AE7487800283FF46EAF8C78002C7B
:1006A0003FF46AAFFFF786FE07462046FFF782FE5B
:1006B0007A1C3FF461AF431C3FF45EAF002440EA74
:1006C000071040B24FFA88F840450C707FF454AFE1
:1006D00020461A4B04AA0134E4B242F8043B1F46F8
:1006E00013F8011B00297FF450AF049F14493846CA
:1006F000FFF754FE28B938461249FFF74FFE00288D
:100700008CD00027092CCDE90177039704D90A9BE7
:100710001B78302B7FF441AF044AD37B23F00303D3
:10072000D37329E7040000200500002068000020A2
:10073000A8190008AE19000840420F00060000206A
:100740009C190008A21900080048704768000020A2
:100750000B682D2B98BFC2540B6801330B60704798
:1007600010B5541E14F8012F02B910BDFFF7F0FFA9
:10077000F8E7F0B50A2785B001AE1C46F318B2FBC6
:10078000F7F507FB1522303203F8012DB3422A4654
:10079000F5D10025725D0135FFF7DAFFA542F9D1E9
:1007A00005B0F0BD2DE9F74F4FF0000A80461F4617
:1007B00082EAE2701E4BA0EBE270B0FBF3F68946D2
:1007C0001C4941F2707B0C46514603FB1600E0FBCE
:1007D0000B41154600232046154A00F04BFF5845B3
:1007E000044608BF544640464FF0640808BF01362F
:1007F00001A94B463246CDF804A0FFF7BAFFB4FB7F
:10080000F8F602233246FFF7B4FF2E22FFF7A0FFCF
:10081000022308FB1642FFF7ACFF9DF8302012EAD6
:10082000250238BF3A46FFF793FF03B0BDE8F08FCB
:1008300080969800404B4C0010B5141E08DA2D220B
:10084000FFF786FF02236242BDE81040FFF791BF29
:100850002B22FFF77DFF02232246F5E72DE9F04F1B
:100860000446164699460746431E00F14102002001
:1008700095B0BDF9788003F8010F9342FBD17E2338
:1008800023700023984810F8012B22B30133072B63
:1008900004D1062318464022234406E05200E254C5
:1008A000F1E70130C0B203F8012F0628F9D1224642
:1008B00060230025DFF834C202F8073F1CF8013B33
:1008C000002B00F0D3800135072D06D10625073512
:1008D0004023254409E0D8B2DDE75B0002F8013F80
:1008E000ECE70130C0B205F8013F0628F9D17723C3
:1008F000A3730323E373F02364252374F37B98FB32
:10090000F5F513F0010300F0B880B068002840F35B
:10091000AF8040F271714FF07D0E8C460021C0FB1C
:100920000EC140F6E2620023604600F053FE8246AC
:100930004FF46162B38953436D4A03F5B433924572
:1009400028BF92466B4A03F5DC73934296BF6A4A0E
:1009500040F2E73BB3FBF2FB42F20F73984500F322
:100960008A80664B9845B8BF6FF0620553230093A9
:1009700032684E23022103A8FFF714FF5723009388
:1009800072684523032105A8FFF70CFF21238DF88A
:10099000203001234FF00008029303AE16F8012B1C
:1009A00002A908A808F10108FFF7D2FEB8F1080F64
:1009B000F4D12F22FFF7CCFE00260DF1140818F811
:1009C000012B02A908A80136FFF7C2FE092EF6D1B5
:1009D0004F22FFF7BDFE4A4AFFF7C2FE03235A46E5
:1009E000FFF7C7FE474AFFF7BBFE06235246FFF755
:1009F000C0FE5622FFF7ACFE04234A46FFF7B9FEBD
:100A00005422FFF7A5FE2A46FFF716FF02982E286C
:100A100028BF2E2004F1100208AB02EB000E724535
:100A20005DD14FF6FF7304F11105374900F1120C47
:100A3000054417F8012F5340082243F300060E40E7
:100A4000013A86EA530312F0FF029BB2F5D17745D3
:100A5000EFD1DB439BB22B701B0A04F80C307E23D2
:100A600004441430E37415B0BDE8F08FE8B22EE70B
:100A70004FF0000A5CE7632578E7059342F20F73B5
:100A80004FF47A7A9845B1FBFAFA26DC1B4B98456D
:100A9000B8BF6FF0620508A805A91C4AFFF760FE01
:100AA0005622FFF755FE04234A46FFF762FE184A16
:100AB000FFF756FE2A46FFF7BFFE164AFFF750FE25
:100AC00008235246FFF755FE134AFFF749FE02235B
:100AD000B27BFFF74EFE059899E76325DBE713F835
:100AE000011B02F8011F9AE7B4190008B9190008A0
:100AF0003F420F007FED090B70D30200F1D8FFFFDA
:100B0000BE190008C31900080884FFFFC7190008B0
:100B1000CF190008D2190008D519000880F0010289
:100B20000D210148FFF7C8BA0010014038B505464D
:100B30000C460120FFF7F2FF45F08000FFF78CFB29
:100B40002046FFF789FBBDE838400020FFF7E6BFED
:100B5000002840F6980218BF4FF4966202F57423FD
:100B600003F510735200B3FBF2F3044A013B9BB24E
:100B700040F24130D362FFF7B5BA00BF00400140F8
:100B800010B504460120FFF7C9FF2046FFF764FBBC
:100B90000020FFF761FBBDE810400020FFF7BEBF5B
:100BA0002DE9F0412649074600F02EFB2549054670
:100BB00000F0DCFC2449061E284618BF012600F080
:100BC000D7FB00F0E7FC1F49C4B2284600F0CEFC7A
:100BD00000280CBF0023182306F101084046183CEA
:100BE000E41A00F0B9FA194900F00EFB0146384644
:100BF00000F0BEFBB4FBF8F40546E0B200F0B0FA3A
:100C00000146284600F0F6F9114900F0F3F91149C0
:100C100000F0FAFA00F0BEFC04F01F0141EA4611B0
:100C200085B241F040017520FFF780FF290A762048
:100C3000FFF77CFFE9B27720BDE8F041FFF776BF10
:100C40003BB1933F0000F04300002041ABAA0A41B2
:100C50000000C04100007A4700F007016D20FFF757
:100C600065BF000008B51420FFF742FA00210620F6
:100C7000FFF75CFF01210720FFF758FF0021082044
:100C8000FFF754FF7F210920FFF750FF05210A20BD
:100C9000FFF74CFFF4210B20FFF748FFEF210C205A
:100CA000FFF744FF00210D20FFF740FF00210E2039
:100CB000FFF73CFF80210F20FFF738FF00211020B5
:100CC000FFF734FF20211220FFF730FF002113200F
:100CD000FFF72CFF1D211C20FFF728FF40211D20BE
:100CE000FFF724FFA1212020FFF720FF2021212052
:100CF000FFF71CFF4E212220FFF718FFA52123201C
:100D0000FFF714FF00212420FFF710FF0A21252000
:100D1000FFF70CFF00214320FFF708FF00214420CC
:100D2000FFF704FF00214520FFF700FF00214620C8
:100D3000FFF7FCFE00217920FFF7F8FE00217A2062
:100D4000FFF7F4FE12217120FFF7F0FE052172205B
:100D5000FFF7ECFE00217320FFF7E8FE002174206E
:100D6000FFF7E4FE00213020FFF7E0FE0020FFF750
:100D700073FF0948FFF714FF0320FFF701FF04206A
:100D8000FFF7FEFE0020FFF7C9FEBDE80840032183
:100D90000720FFF7CBBE00BFC3F5D8432DE9F74FBF
:100DA00088460646002800F0B580002900F0B28091
:100DB0005A4FFFF757FFBB69594A43F4803343F05A
:100DC0000903BB6113680F2123F04003136002F590
:100DD00048429369534843F001039361022303227D
:100DE000FFF764F9002207204FF4D0714E4B012524
:100DF0001A605A609A60DA601A611A629A6198629F
:100E0000D9621A639A635A644FF450525D619A61D1
:100E100010221A6281221A605A6C0B2142F400429D
:100E20005A64FFF783FE2846FFF778FE28244FF028
:100E30007E0A4FF000094AFA09F303F001035A1B36
:100E400055425541284609F10109FFF781FEB9F1E4
:100E5000080FF0D1013C14F0FF04EAD1B246B044CF
:100E60002A464FF0000B1AF8019B49FA0BF303F0E6
:100E70000106731B5D425D4128460192FFF768FE43
:100E8000B9F17E0F0CD0002E42D00134E4B2052C13
:100E9000019A06D182F00102D5B22846FFF758FE2A
:100EA00000240BF1010BBBF1080F2FD1D045D7D196
:100EB00000240020FFF732FE1B4B0F215A6C19480B
:100EC00022F400425A641C6003221C622346FFF78E
:100ED000EDF822460F211348FFF7EEF8134A0321DD
:100EE0009369072023F001039361BB6923F48033E6
:100EF000BB61FFF71BFE0320FFF742FE0420FFF754
:100F00003FFE03B0BDE8F04FFFF772B92A46ACE7E9
:100F10003446C6E703B0BDE8F08F00BF00100240C2
:100F200000380040000C014000400140000001403A
:100F30002DE9F04194B0FFF7F9F8FFF79BF94FF472
:100F40001650FFF723F90324FFF752F9FFF7DAFAF7
:100F5000FFF788FE0120FFF7D5F80020FFF7DCF847
:100F60005020FFF7C5F80020FFF7CCF80120FFF76D
:100F7000D3F8013C5020FFF7BBF814F0FF04E9D18F
:100F80002046FFF7BFF82046FFF7C6F8FFF7A4F8A2
:100F900042F20F77A0F51C54103CFFF7C1FAFFF79F
:100FA0009BF8001BB842F8D9FFF7CEFB0646FFF7C7
:100FB00093F80446FFF790F80546FFF7C9F9804615
:100FC000FFF7D4F9434632462946009003A8FFF7BD
:100FD00045FC05460120FFF79FF803A82946FFF7C7
:100FE000DDFE0020FFF798F8D7E7000080F0004012
:100FF00002E000BF81F0004142001FBF5FEA4103F1
:1010000092EA030F7FEA226C7FEA236C6AD04FEAF0
:101010001262D2EB1363C1BFD21841404840414035
:10102000B8BF5B42192B88BF704710F0004F40F4E7
:10103000000020F07F4018BF404211F0004F41F403
:10104000000121F07F4118BF494292EA030F3FD0CF
:10105000A2F1010241FA03FC10EB0C00C3F12003E2
:1010600001FA03F100F0004302D5494260EB400071
:10107000B0F5000F13D3B0F1807F06D340084FEADC
:10108000310102F10102FE2A51D2B1F1004F40EBD1
:10109000C25008BF20F0010040EA03007047490039
:1010A00040EB0000013A28BFB0F5000FEDD2B0FAD6
:1010B00080FCACF1080CB2EB0C0200FA0CF0AABFF9
:1010C00000EBC25052421843BCBFD0401843704797
:1010D00092F0000F81F4000106BF80F4000001329D
:1010E000013BB5E74FEA41037FEA226C18BF7FEA74
:1010F000236C21D092EA030F04D092F0000F08BFB6
:101100000846704790EA010F1CBF0020704712F09C
:101110007F4F04D1400028BF40F00040704712F1DB
:1011200000723CBF00F50000704700F0004343F040
:10113000FE4040F4000070477FEA226216BF084676
:101140007FEA23630146420206BF5FEA412390EA39
:10115000010F40F4800070474FF0000304E000BF2F
:1011600010F0004348BF40425FEA000C08BF7047E0
:1011700043F0964301464FF000001CE050EA0102A4
:1011800008BF70474FF000030AE000BF50EA0102B9
:1011900008BF704711F0004302D5404261EB4101A6
:1011A0005FEA010C02BF84460146002043F0B643CB
:1011B00008BFA3F18053A3F50003BCFA8CF2083AF0
:1011C000A3EBC25310DB01FA02FC634400FA02FCF9
:1011D000C2F12002BCF1004F20FA02F243EB020000
:1011E00008BF20F00100704702F1200201FA02FC62
:1011F000C2F1200250EA4C0021FA02F243EB020055
:1012000008BF20EADC7070474FF0FF0C1CEAD05298
:101210001EBF1CEAD15392EA0C0F93EA0C0F6FD059
:101220001A4480EA010C400218BF5FEA41211ED037
:101230004FF0006343EA501043EA5111A0FB013123
:101240000CF00040B1F5000F3EBF490041EAD371F8
:101250005B0040EA010062F17F02FD2A1DD8B3F174
:10126000004F40EBC25008BF20F00100704790F0E3
:10127000000F0CF0004C08BF49024CEA502040EA35
:1012800051207F3AC2BFD2F1FF0340EAC2507047FB
:1012900040F400004FF00003013A5DDC12F1190F39
:1012A000DCBF00F000407047C2F10002410021FAAB
:1012B00002F1C2F1200200FA02FC5FEA310040F1C3
:1012C000000053EA4C0308BF20EADC70704792F03C
:1012D000000F00F0004C02BF400010F4000F013A74
:1012E000F9D040EA0C0093F0000F01F0004C02BF6F
:1012F000490011F4000F013BF9D041EA0C018FE7DE
:101300000CEAD15392EA0C0F18BF93EA0C0F0AD0E3
:1013100030F0004C18BF31F0004CD8D180EA010009
:1013200000F00040704790F0000F17BF90F0004FA2
:10133000084691F0000F91F0004F14D092EA0C0F84
:1013400001D142020FD193EA0C0F03D14B0218BF17
:10135000084608D180EA010000F0004040F0FE405D
:1013600040F40000704740F0FE4040F440007047F9
:101370004FF0FF0C1CEAD0521EBF1CEAD15392EA78
:101380000C0F93EA0C0F69D0A2EB030280EA010C68
:1013900049024FEA402037D04FF0805343EA111101
:1013A00043EA10130CF000408B4238BF5B0042F15F
:1013B0007D024FF4000C8B4224BF5B1A40EA0C0004
:1013C000B3EB510F24BFA3EB510340EA5C00B3EB36
:1013D000910F24BFA3EB910340EA9C00B3EBD10F24
:1013E00024BFA3EBD10340EADC001B0118BF5FEA76
:1013F0001C1CE0D1FD2A3FF650AF8B4240EBC2509F
:1014000008BF20F0010070470CF0004C4CEA50205F
:101410007F32C2BFD2F1FF0340EAC250704740F4AE
:1014200000004FF00003013A37E792F0000F00F0A0
:10143000004C02BF400010F4000F013AF9D040EA1E
:101440000C0093F0000F01F0004C02BF490011F4B2
:10145000000F013BF9D041EA0C0195E70CEAD153AA
:1014600092EA0C0F08D142027FF47DAF93EA0C0F91
:101470007FF470AF084676E793EA0C0F04D14B0275
:101480003FF44CAF08466EE730F0004C18BF31F027
:10149000004CCAD130F000427FF45CAF31F0004321
:1014A0007FF43CAF5FE700BF4FF0FF3C06E000BFBA
:1014B0004FF0010C02E000BF4FF0010C4DF804CDDD
:1014C0004FEA40024FEA41037FEA226C18BF7FEAED
:1014D000236C11D001B052EA530C18BF90EA010FEF
:1014E00058BFB2EB030088BFC81738BF6FEAE1707E
:1014F00018BF40F0010070477FEA226C02D15FEA1A
:10150000402C05D17FEA236CE4D15FEA412CE1D085
:101510005DF8040B704700BF844608466146FFE74C
:101520000FB5FFF7C9FF002848BF10F1000F0FBD2E
:101530004DF808EDFFF7F4FF0CBF012000205DF827
:1015400008FB00BF4DF808EDFFF7EAFF34BF0120AC
:1015500000205DF808FB00BF4DF808EDFFF7E0FF45
:1015600094BF012000205DF808FB00BF4DF808ED96
:10157000FFF7D2FF94BF012000205DF808FB00BFF9
:101580004DF808EDFFF7C8FF34BF012000205DF8DB
:1015900008FB00BF42000ED2B2F1FE4F0BD34FF05A
:1015A0009E03B3EB126209D44FEA002343F00043D9
:1015B00023FA02F070474FF00000704712F1610FFC
:1015C00001D1420202D14FF0FF3070474FF00000CE
:1015D000704700BF7BB972B90029BEBF00204FF031
:1015E000004106E008BF00281CBF6FF000414FF02B
:1015F000FF3000F0D1B9ADF1080C6DE904CE00293F
:1016000009DB002B1ADB00F04DF8DDF804E0DDE922
:10161000022304B07047404261EB4101002B1BDB09
:1016200000F040F8DDF804E0DDE9022304B04042B8
:1016300061EB4101524263EB43037047524263EB5B
:10164000430300F02FF8DDF804E0DDE9022304B0E5
:10165000404261EB41017047524263EB430300F0AB
:1016600021F8DDF804E0DDE9022304B0524263EB27
:101670004303704753B94AB9002908BF00281CBF6B
:101680004FF0FF314FF0FF3000F086B9ADF1080C9C
:101690006DE904CE00F006F8DDF804E0DDE9022390
:1016A00004B070472DE9F047089D0F4604468E466A
:1016B000002B48D18A42164661D9B2FA82F24AB169
:1016C000C2F1200301FA02FE20FA03F3964043EA36
:1016D0000E0E94404FEA164CBEFBFCF1B7B20CFB69
:1016E00011EE01FB07F0230C43EA0E43984209D99F
:1016F000F31801F1FF3E80F0ED80984240F2EA805D
:10170000023933441B1AB3FBFCF00CFB103300FB13
:1017100007F7A4B244EA0344A74209D9341900F1F7
:10172000FF3380F0D980A74240F2D680344402389B
:1017300040EA01400021E41B1DB10023D440C5E96B
:101740000043BDE8F0878B4206D90DB1C5E9000121
:1017500000210846BDE8F087B3FA83F1002947D19C
:10176000BB4202D3824200F20481841A67EB030277
:1017700001209646002DE4D0C5E9004EE1E7002A9D
:1017800000F09080B2FA82F2002A40F0A780881B15
:101790000121370C1FFA86FEB0FBF7FC07FB1C008B
:1017A000230C43EA00430EFB0CF0984207D9F318D0
:1017B0000CF1FF3802D2984200F2E080C4461B1AB6
:1017C000B3FBF7F007FB10330EFB00FEA4B244EAB4
:1017D0000344A64507D9341900F1FF3302D2A645C8
:1017E00000F2C9801846A4EB0E0440EA0C40A3E7BF
:1017F000C1F120068B4022FA06FC4CEA030C27FAC2
:1018000006FA4FEA1C49BAFBF9F88F4020FA06F3B2
:1018100009FB18AA1FFA8CFE3B4300FA01F708FBEC
:101820000EF01C0C44EA0A44A04202FA01F20BD961
:101830001CEB040408F1FF3A80F09980A04240F2CA
:101840009680A8F102086444241A98B2B4FBF9F314
:1018500009FB134403FB0EFE40EA0444A64508D9E5
:101860001CEB040403F1FF307FD2A6457DD9023B77
:10187000644443EA0840A4EB0E04A0FB028E7445C6
:101880004346F14661D35ED055B1FA1A64EB0904C0
:1018900004FA06F622FA01F31E43CC40C5E90064BF
:1018A00000214EE743084FEA510C43EAC1710A0C8C
:1018B00042EA0C428BB2C407B2FBF6F143EA0243A0
:1018C000BCFBF6FCB646304637461F22181A41EAE2
:1018D0000C4161E7714615E7184629E7C2F120037C
:1018E00021FA03F0964024FA03F397403B43370C68
:1018F000B0FBF7F807FB18001FFA86FE190C41EA47
:10190000004108FB0EF0884204FA02F43AD971183B
:1019100008F1FF3C01D288421ED8091AB1FBF7F842
:1019200008FB0EF007FB18119BB243EA0143834208
:101930002FD2F31808F1FF31C8D28342C6D2A8F1E2
:1019400002013344C2E747459ED2B8EB02036EEB77
:101950000C0E0138F14697E7301A0144A8F1020C49
:10196000B1FBF7F808FB0EF0DCE7034681E7D04651
:101970006AE70846FEE63444023834E7ACF1020C6C
:1019800033441CE7091AC446B1FBF7F808FB0EF014
:10199000C8E741469AE700BF704700BF4750474736
:1019A0004100474E474741004750524D4300474E84
:1019B000524D4300415052530052533431003030A5
:1019C000302F002F413D003E4E4F46495820002009
:0819D0005400205500205100D5
:0819D800CCFCFF7F01000000C0
:0400000508000040AF
:00000001FF
